:020000040800F2
:100000008806002029020008310200083302000897
:10001000350200083702000839020008000000001D
:100020000000000000000000000000003B0200088B
:100030003D020008000000003F02000851050008D2
:10004000430200084302000843020008430200087C
:10005000430200084302000843020008430200086C
:10006000430200084302000843020008430200085C
:10007000430200084302000843020008430200084C
:10008000430200084302000843020008430200083C
:10009000430200084302000843020008430200082C
:1000A000430200084302000843020008430200081C
:1000B000430200084302000843020008430200080C
:1000C00043020008430200084302000843020008FC
:1000D00043020008430200084302000843020008EC
:1000E00043020008430200084302000843020008DC
:1000F00043020008430200084302000843020008CC
:1001000000000000000000000000000043020008A2
:1001100043020008430200084302000843020008AB
:10012000430200084302000843020008430200089B
:100130004302000843020008000000000000000025
:1001400043020008430200084302000800000000C8
:10015000000000000000000000000000000000009F
:1001600000000000000000004302000843020008F5
:100170004302000800000000000000000000000032
:10018000000000004302000800F002F800F03CF814
:100190000AA090E8000C82448344AAF10107DA45E2
:1001A00001D100F031F8AFF2090EBAE80F0013F0F8
:1001B000010F18BFFB1A43F0010318475005000058
:1001C00070050000103A24BF78C878C1FAD85207E9
:1001D00024BF30C830C144BF04680C6070470000C1
:1001E0000023002400250026103A28BF78C1FBD840
:1001F000520728BF30C148BF0B6070471FB500F0E1
:100200007FFA1FBD10B510BD00F031F81146FFF7A1
:10021000F5FF00F037FA00F04FF803B4FFF7F2FFF4
:1002200003BC00F057F80000094880470948004720
:10023000FEE7FEE7FEE7FEE7FEE7FEE7FEE7FEE796
:10024000FEE7FEE704480549054A064B70470000F3
:100250008D0500088901000888000020880600201C
:10026000880200208802002070477047704775465A
:1002700000F02CF8AE4605006946534620F0070012
:10028000854618B020B5FFF7DDFFBDE820404FF0F0
:1002900000064FF000074FF000084FF0000B21F070
:1002A0000701AC46ACE8C009ACE8C009ACE8C0093D
:1002B000ACE8C0098D46704710B50446AFF3008026
:1002C0002046BDE81040FFF7A8BF00000048704777
:1002D0002400002001491820ABBEFEE726000200E2
:1002E0007047F0B50A46002100240025002300BF16
:1002F0003FE0012606FA01F4166806EA0405A54265
:1003000036D11679012E02D01679022E18D18668C0
:100310004FEA410C032707FA0CF7BE438660567973
:100320004F00BE4087683E438660868801278F4025
:10033000BE438680878896798E40B6B237438780E1
:1003400006684FEA410C032707FA0CF7BE43066024
:1003500016794F00BE4007683E430660C3684F00F1
:100360000326BE40B343D6794F00BE403343C3603B
:10037000491C1029BDD3F0BD0185704781617047CC
:100380000120014908707047230000200120014925
:1003900008707047220000201CB50121480500F0BC
:1003A00065F84FF47F40009001208DF80400022092
:1003B0008DF8050000208DF806008DF807006946CD
:1003C0000148FFF78EFF1CBD001000480F48007861
:1003D000012819D10E480078142810DB00200C49A0
:1003E00008700C480078002805DD0A480078401E97
:1003F0000849087008E000200449087004E0044837
:100400000078401C0249087070470000230000205B
:10041000210000201E0000201048007801281BD178
:100420000F480078282812DB00200D4908700D487D
:1004300000780D490978884205DA0A480078401C9E
:100440000849087008E000200449087004E00448E6
:100450000078401C0249087070470000220000200C
:10046000200000201E0000201F00002029B1064AA5
:1004700052690243044B5A6104E0034A52698243C1
:10048000014B5A6170470000001002400CB500207B
:10049000019000902C48006840F480302A490860A0
:1004A00000BF2948006800F4003000900198401C0B
:1004B0000190009818B90198B0F5A04FF1D12248E9
:1004C000006800F4003010B10120009001E000202D
:1004D00000900098012836D112201C4908601A4863
:1004E00040681949486008464068486008464068C6
:1004F00040F4806048600846406820F47C10486002
:100500000846406840F4E81048600846006840F03B
:100510008070086000BF0C48006800F00070002880
:10052000F9D00948406820F00300074948600846B0
:10053000406840F00200486000BF0348406800F097
:100540000C000828F9D10CBD001002400020024028
:1005500010B50C480088002804DD0A480088401EB9
:100560000849088008480088002804DD06480088FB
:10057000401E0549088000F04BF8FFF74DFFFFF7DC
:1005800025FF10BD140000201800002010B51B48E6
:10059000006840F47000194908601948006840F08C
:1005A0000100174908600846406816490840144988
:1005B0004860084600681449084011490860084628
:1005C000006820F4802008600846406820F4FE009F
:1005D00048600846C06A20F00F00C8620846006BF9
:1005E0000A4908400649086300208860FFF74EFF6B
:1005F0004FF0006001498039086010BD88ED00E0CF
:10060000001002400CC07FF8FFFFF6FECCFC00FF9C
:1006100010B51348007813490978884208DB002098
:100620000F4908704FF400410F48FFF7A7FE15E08F
:100630000B4800780D49097888420AD108480078AB
:10064000401C074908704FF400410748FFF794FE2B
:1006500004E003480078401C0149087010BD000008
:100660001D0000201F000020001000481E00002078
:100670000349088000BF024909880029FBD170475F
:1006800014000020FFF788FE1A4800684FF47A72C1
:10069000B0FBF2F1481EB0F1807F00D31BE0481E92
:1006A0004FF0E022506150170F22002807DA13079D
:1006B0001D0E114B00F00F04241F1D5503E01307FE
:1006C0001C0E0E4B1C5400BF00204FF0E022906126
:1006D0000720106100BF0BE0FFF758FE4FF47A705F
:1006E000FFF7C6FFFFF74CFE4FF47A70FFF7C0FF2D
:1006F000F2E700000000002018ED00E000E400E058
:100700004FF04070E1EE100A704700002C0700081F
:100710000000002024000000C40100085007000869
:100720002400002064060000E001000800A24A0442
:100730000000000000000000010203040607080991
:100740000000000000000000000001140000000094
:0400000508000229C4
:00000001FF
