:020000040800F2
:10000000800600202902000831020008330200089F
:10001000350200083702000839020008000000001D
:100020000000000000000000000000003B0200088B
:100030003D020008000000003F020008DD04000847
:10004000430200084302000843020008430200087C
:10005000430200084302000843020008430200086C
:10006000430200084302000843020008430200085C
:10007000430200084302000843020008430200084C
:10008000430200084302000843020008430200083C
:10009000430200084302000843020008430200082C
:1000A000430200084302000843020008430200081C
:1000B000430200084302000843020008430200080C
:1000C00043020008430200084302000843020008FC
:1000D00043020008430200084302000843020008EC
:1000E00043020008430200084302000843020008DC
:1000F00043020008430200084302000843020008CC
:1001000000000000000000000000000043020008A2
:1001100043020008430200084302000843020008AB
:10012000430200084302000843020008430200089B
:100130004302000843020008000000000000000025
:1001400043020008430200084302000800000000C8
:10015000000000000000000000000000000000009F
:1001600000000000000000004302000843020008F5
:100170004302000800000000000000000000000032
:10018000000000004302000800F002F800F03CF814
:100190000AA090E8000C82448344AAF10107DA45E2
:1001A00001D100F031F8AFF2090EBAE80F0013F0F8
:1001B000010F18BFFB1A43F0010318476C0600003B
:1001C0008C060000103A24BF78C878C1FAD85207CC
:1001D00024BF30C830C144BF04680C6070470000C1
:1001E0000023002400250026103A28BF78C1FBD840
:1001F000520728BF30C148BF0B6070471FB500F0E1
:100200000DFB1FBD10B510BD00F031F81146FFF712
:10021000F5FF00F015FA00F04FF803B4FFF7F2FF16
:1002200003BC00F057F80000094880470948004720
:10023000FEE7FEE7FEE7FEE7FEE7FEE7FEE7FEE796
:10024000FEE7FEE704480549054A064B70470000F3
:10025000BD050008890100088000002080060020FC
:10026000800200208002002070477047704775466A
:1002700000F02CF8AE4605006946534620F0070012
:10028000854618B020B5FFF7DDFFBDE820404FF0F0
:1002900000064FF000074FF000084FF0000B21F070
:1002A0000701AC46ACE8C009ACE8C009ACE8C0093D
:1002B000ACE8C0098D46704710B50446AFF3008026
:1002C0002046BDE81040FFF7A8BF00000048704777
:1002D0002000002001491820ABBEFEE726000200E6
:1002E00070471CB50121480400F086F801200090F9
:1002F00000208DF8040002208DF8050000208DF804
:1003000006008DF8070069464FF0904000F001F8B4
:100310001CBDF0B50A46002100240025002300BFC3
:100320003FE0012606FA01F4166806EA0405A54234
:1003300036D11679012E02D01679022E18D1866890
:100340004FEA410C032707FA0CF7BE438660567943
:100350004F00BE4087683E438660868801278F40F5
:10036000BE438680878896798E40B6B237438780B1
:1003700006684FEA410C032707FA0CF7BE430660F4
:1003800016794F00BE4007683E430660C3684F00C1
:100390000326BE40B343D6794F00BE403343C3600B
:1003A000491C1029BDD3F0BD02460020138A0B4022
:1003B0000BB1012000E0002070470185704781618A
:1003C000704700001CB50121480500F015F84FF4F6
:1003D0007F40009001208DF8040002208DF8050078
:1003E00000208DF806008DF8070069460148FFF7E8
:1003F00090FF1CBD0004004829B1064A526902431F
:10040000044B5A6104E0034A52698243014B5A612A
:1004100070470000001002400CB5002001900090D1
:100420002C48006840F480302A49086000BF294801
:10043000006800F4003000900198401C0190009882
:1004400018B90198B0F5A04FF1D12248006800F426
:10045000003010B10120009001E0002000900098D1
:10046000012836D112201C4908601A4840681949F1
:1004700048600846406848600846406840F480602C
:1004800048600846406820F47C1048600846406890
:1004900040F4E81048600846006840F0807008604A
:1004A00000BF0C48006800F000700028F9D009482F
:1004B000406820F00300074948600846406840F063
:1004C0000200486000BF0348406800F00C000828A4
:1004D000F9D10CBD001002400020024010B5304898
:1004E0000088002804DD2E480088401E2C49088022
:1004F0002C480088002804DD2A480088401E29492D
:10050000088001214FF09040FFF74EFF012838D1BD
:1005100025480078052805DA23480078401C224940
:1005200008703BE02148007850BB01201F4908704B
:1005300000201F49087001201E49087081031E48D1
:10054000FFF73BFF4FF400511B48FFF736FF4FF416
:1005500080511948FFF731FF4FF400611648FFF74B
:100560002CFF4FF480611448FFF727FF4FF4007110
:100570001148FFF722FF4FF480710F48FFF71DFF6E
:100580000CE009480078002805DD07480078401E87
:100590000549087002E000200449087010BD000001
:1005A00014000020180000201B0000201C00002068
:1005B000160000201A0000200010004810B51B484B
:1005C000006840F47000194908601948006840F05C
:1005D0000100174908600846406816490840144958
:1005E00048600846006814490840114908600846F8
:1005F000006820F4802008600846406820F4FE006F
:1006000048600846C06A20F00F00C8620846006BC8
:100610000A4908400649086300208860FFF7FCFE8D
:100620004FF0006001498039086010BD88ED00E09E
:10063000001002400CC07FF8FFFFF6FECCFC00FF6C
:10064000FFF7C0FEFFF74DFE6C4800684FF47A726A
:10065000B0FBF2F1481EB0F1807F00D31BE0481ED2
:100660004FF0E022506150170F22002807DA1307DD
:100670001D0E634B00F00F04241F1D5503E01307EC
:100680001C0E604B1C5400BF00204FF0E022906114
:100690000720106100BF64205B49088000205B498F
:1006A0000870A9E05948007808BB5948007801282B
:1006B0000AD16420544908800020554908704FF43D
:1006C00000415448FFF77BFE4F4800880028E8D1DE
:1006D0004FF400414F48FFF770FE4F48007810B9C3
:1006E00001204A49087001204949087084E04748C0
:1006F000007801281ED14648007801280AD16420DC
:10070000414908800020424908704FF48041414827
:10071000FFF755FE3C48008800286DD14FF480411A
:100720003C48FFF74AFE0320384908700120384949
:10073000087061E03548007803281ED134480078FD
:1007400001280AD16420304908800020304908700F
:100750004FF480512F48FFF732FE2B4800880028C5
:100760004AD14FF480512B48FFF727FE0420274938
:1007700008700120264908703EE0244800780428CB
:100780001DD12348007801280AD164201E49088021
:1007900000201F4908704FF400611E48FFF70FFE4C
:1007A0001948008840BB4FF400611A48FFF705FE66
:1007B0000520164908700120154908701CE01448EE
:1007C000007801280AD164200F49088000201049D0
:1007D00008704FF480610F48FFF7F1FD0A48008868
:1007E00050B94FF480610B48FFF7E7FD0620074939
:1007F000087001200649087054E70000000000203E
:1008000018ED00E000E400E01800002016000020D1
:100810001A000020001000481C0000204FF040701B
:10082000E1EE100A704700004808000800000020B0
:1008300020000000C4010008680800082000002013
:1008400060060000E001000800A24A040000000069
:100850000000000001020304060708090000000070
:08086000000000000000000090
:0400000508000229C4
:00000001FF
